:1000000010C02AC029C028C027C026C026C024C0CE
:1000100023C022C021C020C01FC01AC21DC025C3DA
:1000200040C311241FBECFE5D1E0DEBFCDBF10E03D
:10003000A0E6B0E0E8EDF7E002C005900D92A83729
:10004000B107D9F720E0A8E7B0E001C01D92AE3AB1
:10005000B207E1F7A0D1BEC3D3CF1F920F920FB664
:100060000F9211248F93A8958091AA008F5F80939F
:10007000AA00823088F08091AB0082608093AB0050
:100080001092AA008091AC008F5F8F3F19F080938F
:10009000AC0002C01092AC008F910F900FBE0F9079
:1000A0001F9018958091AB0084608093AB000895F9
:1000B00090937D0080937C008091AB00886080935A
:1000C000AB0008958F929F92BF92CF92DF92EF92F2
:1000D000FF921F93CF93DF93C82EF894882309F4DF
:1000E000C5C0D12C6894BB24B1F8CCE7D0E09FD236
:1000F000182F80917B0081116EC063D210937A001B
:10010000123009F44BC028F4112361F01130F1F1E1
:100110005FC0133009F450C02FEE210F253008F4D2
:1001200053C056C0E0917E00F0E0EE0FFF1FE15992
:10013000FF4F818166D2E0917E00F0E0EE0FFF1F5D
:10014000E159FF4F80815DD2E0917E00F0E0EE0F3B
:10015000FF1FE959FF4F818154D2E0917E00F0E00A
:10016000EE0FFF1FE959FF4F80814BD2E0917E00D7
:10017000F0E0ED59FF4F808144D28091620041D27E
:10018000809161003ED210927B006DC080917D0015
:1001900038D2888136D210927B0065C080E031D29F
:1001A00080916000882319F081E02BD202C080E0AA
:1001B00028D210927B0057C080E023D280917E002D
:1001C00020D210927B004FC081E080937B004BC017
:1001D00010927B0048C0813049F4212F30E03093E9
:1001E000790020937800B0927B003DC08230D9F531
:1001F00080917A00833149F128F4813141F08231D4
:10020000A9F02FC0843141F1853149F12AC0E09134
:100210007E00F0E0EE0FFF1FE159FF4F9090780055
:10022000812CC401812B918380831BC0E0917E00CF
:10023000F0E0EE0FFF1FE959FF4FF0907800E12C3E
:10024000C701812B918380830CC0E0917E00F0E098
:10025000ED59FF4F108305C01093620002C0109348
:10026000610010927B00D394DC1041CF7894DF9131
:10027000CF911F91FF90EF90DF90CF90BF909F9014
:100280008F900895C298BA9A089588B38C6F88BBEE
:1002900087B38C7F87BB86B38170B19982608330CE
:1002A00019F491E09093610008951092AC00809150
:1002B000AD008C7F8093AD0008959091AD0090FFCC
:1002C0000BC091FD11C02091AC00281778F092600E
:1002D0009093AD0081E008951092AC009D7F9160F5
:1002E0009093AD0080E0089581E0089580E0089546
:1002F0001F93CF93DF93EC01162F83E010D18093EF
:100300006000882351F0E12FF0E0EE0FFF1FE1596C
:10031000FF4FC081D181C9DF0DC080916100CDDF69
:10032000882341F0E12FF0E0EE0FFF1FE959FF4F66
:10033000C081D181CE01DF91CF911F91089520918D
:100340007C0030917D008217930780F460916200F9
:10035000281B390B2930310508F461E08091AD008C
:1003600084608093AD0081E003D108952817390798
:1003700088F4E62FF0E0ED59FF4F6081821B930B6C
:10038000099708F461E08091AD0084608093AD002E
:1003900080E0EED0089576DF82E49FE0C7D084E26B
:1003A0001ED187E0CED09ED083E0AAD085B7877ECD
:1003B00085BF29E288E190E00FB6F894A89581BD49
:1003C0000FBE21BD82E093D060DF80937E00E82FD6
:1003D000F0E0EE0FFF1FE159FF4FC081D18178940B
:1003E00014E08091AB0082FF04C08B7F8093AB0050
:1003F00039D18091AB0083FF0DC0877F8093AB0024
:1004000060917E00CE0174DFEC0160917E0097DF89
:1004100082E06DD08091AB0081FF08C08C7F80931B
:10042000AB0086B3812788BB82E061D08091AB00AE
:100430008111D7CFF89485B7806285BF789488956D
:1004400085B78F7D85BF8091AB00882399F3C9CF95
:100450001F920F920FB60F9211242F933F934F9339
:100460005F936F937F938F939F93AF93BF93EF931C
:10047000FF9384B195B12091800030918100820F6B
:10048000931F909381008093800080917F008F5F05
:10049000803118F480937F0014C010927F0086B1E1
:1004A0008F7186B98091800090918100929582959C
:1004B0008F7089279F708927FBDD10928100109231
:1004C0008000FF91EF91BF91AF919F918F917F91AC
:1004D0006F915F914F913F912F910F900FBE0F90B1
:1004E0001F90189517B88FE086B913B8089597B183
:1004F000907C892B87B986B1806E86B913B8089530
:100500009BB321E030E002C0220F331F8A95E2F74F
:10051000209592239BBB87B3282327BB089589B3DB
:1005200082FB882780F991E0892708959BBD8ABDC9
:100530001DBC1CBC1FBC8DE08EBD12BC82E08CB902
:1005400008954AB321E030E0B90102C0660F771F79
:100550008A95E2F7CB01842B8ABB83E280BF8BE0D4
:1005600083BF12BE80EF86BF8FEE8CBF19BE089589
:100570009CB726B7882331F0690F621748F06FEFF8
:10058000620F06C0691718F4961B692F01C060E05E
:100590006CBF08951FB8D69A8EE78EB90895D69885
:1005A0001FB88EE78EB9089588EA8DB980E78EB9B5
:1005B0000895D69A80E78EB90895D69880E78EB9C7
:1005C0000895109283001092840010928200089582
:1005D0001092960010929700109295000895CF9374
:1005E000C82FEFDFF5DFC093A8008AB380658ABB10
:1005F000DC9ADE9AD69888EA8DB980EF8EB9CF91D1
:100600000895909182009031E1F3E0918400F0E050
:10061000EB57FF4F8083809184008F5F8F708093B2
:100620008400809182008F5F809382000895809182
:1006300095008823E1F3E0919600F0E0E856FF4F43
:100640008081909196009F5F9F709093960090910B
:100650009500915090939500089580919500811197
:1006600031DD08957599F9DF08951F920F920FB645
:100670000F9211248F931092A900D698CC9B02C0A0
:10068000CE9BFCCFCE9903C088EF8DB902C088EA1B
:100690008DB980EF8EB98F910F900FBE0F901F9084
:1006A00018951F920F920FB60F9211242F933F931C
:1006B0004F935F936F937F938F939F93AF93BF936A
:1006C000EF93FF938091A900823009F44DC028F484
:1006D000882359F0813051F16BC0843009F449C04E
:1006E00000F1853009F44AC063C08FB1882331F02E
:1006F0009FB196958091A800981311C0789B09C06E
:1007000080918200811101C0A8DF81E08093A9005F
:1007100004C05EDF84E08093A9003CDF49C044DF71
:1007200047C08FB1882311F03FDF43C08091820022
:100730008823B9F0E0918300F0E0EB57FF4F808110
:100740008FB9809183008F5F8F7080938300809139
:10075000820081508093820082E08093A90029DF8B
:1007600027C01DDF21DF25C083E08093A90017DFAC
:100770001FC085E08093A90020DF1AC080919500FA
:10078000803190F4E09197008FB1F0E0E856FF4F90
:100790008083809197008F5F8F7080939700809106
:1007A00095008F5F8093950084E08093A900F2DE2E
:1007B00079DCFF91EF91BF91AF919F918F917F91E4
:1007C0006F915F914F913F912F910F900FBE0F90BE
:0807D0001F901895F894FFCF6B
:1007D800010301010101018C007A0070008C00DF27
:0807E8000198015001DF01003E
:00000001FF
