S0140000436F64655F5553495F5457492E73726563F2
S113000010C02AC029C028C027C026C026C024C0CA
S113001023C022C021C020C01FC01EC01DC0A7C154
S1130020C2C111241FBECFE5D1E0DEBFCDBF10E0B9
S1130030A0E6B0E0ECE0F5E002C005900D92A23736
S1130040B107D9F720E0A2E7B0E001C01D92A53ABC
S1130050B207E1F7FFD058C2D3CF1F920F920FB669
S11300600F9211248F9380919F00816080939F0051
S1130070A89580919E008F5F843018F480939E0031
S113008007C010929E008091A0008F5F8093A00013
S11300908F910F900FBE0F901F90189580919F0025
S11300A0826080939F000895EF92FF920F931F93B5
S11300B0CF93DF93082F882309F4C0C010E068941D
S11300C0FF24F1F8EE24E394C2EAD0E035D1909114
S11300D0740091116AC080937300823009F44FC098
S11300E030F4882361F0813009F43FC05BC0833071
S11300F009F44DC08451853008F451C053C080E0E8
S113010005D1E0919D00F0E0EE0FFF1FE559FF4F90
S11301108081FCD0E0919D00F0E0EE0FFF1FE559D7
S1130120FF4F8181F3D0E0919D00F0E0EE0FFF1FBF
S1130130EB59FF4F8081EAD0E0919D00F0E0EE0F93
S1130140FF1FEB59FF4F8181E1D0E0919D00F0E06A
S1130150EE59FF4F8081DAD080916100D7D0809131
S11301606000D4D01092740066C08E2DCFD08881E8
S1130170CDD08091A300CAD0109274005CC08F2DA2
S1130180C5D08091A400C2D01092740054C083E002
S1130190BDD080919D00BAD0109274004CC0E09202
S11301A0740049C01092740046C0913029F48093C1
S11301B07200F09274003FC09230E9F590917300A0
S11301C0963159F128F4943141F09531B1F031C0B0
S11301D0973151F1983159F12CC0E0919D00F0E034
S11301E0EE0FFF1FE559FF4F90E0982F88272091CD
S11301F07200822B918380831CC0E0919D00F0E00B
S1130200EE0FFF1FEB59FF4F90E0982F88272091A6
S11302107200822B918380830CC0E0919D00F0E0FA
S1130220EE59FF4F808305C08093610002C0809324
S11302306000109274001F5F101348CFDF91CF91BC
S11302401F910F91FF90EF90089586B38170B1993B
S11302508260089581EA97E035D084E23ED085B784
S1130260877E85BF29E288E190E00FB6F894A895CF
S113027081BD0FBE21BDE9DF80939D0094E0809194
S11302809F0081FF03C08D7F80939F0080919F001A
S113029080FF03C08E7F80939F0080919F00811117
S11302A00DC0F89485B7806285BF7894889585B72A
S11302B08F7D85BF80919F00882399F386B389271A
S11302C088BBDDCF9BBD8ABD1DBC1CBC1FBC8DE0A3
S11302D08EBD12BC82E08CB90895109289001092F0
S11302E08A00109288001092760010927700109283
S11302F0750080939B008AB380658ABBDC9ADE9A82
S1130300D69888EA8DB980EF8EB9089590917500DA
S11303109031E1F3E0917700F0E0E858FF4F8083FB
S1130320809177008F5F8F70809377008091750044
S11303308F5F809375000895809188008823E1F38E
S1130340E0918900F0E0E557FF4F808190918900AA
S11303509F5F9F7090938900909188009150909333
S1130360880008958091880081119EDE08951F926F
S11303700F920FB60F9211248F9310929C00D6986F
S1130380CC9B02C0CE9BFCCFCE9903C088EF8DB925
S113039002C088EA8DB980EF8EB98F910F900FBE9D
S11303A00F901F9018951F920F920FB60F92112461
S11303B02F933F934F935F936F937F938F939F9369
S11303C0AF93BF93EF93FF9380919C00823009F425
S11303D05DC028F4882359F0813091F183C08430C2
S11303E009F45CC028F1853009F45FC07BC08FB18B
S11303F0882331F09FB1969580919B00981313C088
S1130400789B09C080917500811101C0ABDF81E048
S113041080939C0003C084E080939C001FB8D69A0C
S11304208EE78EB95FC088EA8DB980E78EB95AC06D
S11304308FB1882329F088EA8DB980E78EB953C03B
S1130440809175008823C9F0E0917600F0E0E858C7
S1130450FF4F80818FB9809176008F5F8F7080937A
S113046076008091750081508093750082E08093BE
S11304709C00D69A80E78EB935C0D6981FB88EE70F
S11304808EB988EA8DB980E78EB92DC083E0809358
S11304909C00D6981FB88EE78EB924C085E080935F
S11304A09C00D69880E78EB91DC080918800803169
S11304B090F4E0918A008FB1F0E0E557FF4F80831C
S11304C080918A008F5F8F7080938A00809188006A
S11304D08F5F8093880084E080939C001FB8D69A35
S11304E08EE78EB9DBDDFF91EF91BF91AF919F91C4
S11304F08F917F916F915F914F913F912F910F90C9
S10F05000FBE0F901F901895F894FFCFC9
S113050C781408070646003C003200EB00C800A52E
S105051C0000D9
S9030000FC
