S0140000436F64655F5553495F5457492E73726563F2
S113000010C02AC029C028C027C026C026C024C0CA
S113001023C022C021C077C21FC00FC21DC044C369
S11300205FC311241FBECFE5D1E0DEBFCDBF10E01A
S1130030A0E6B0E0E6E1F8E002C005900D92A83732
S1130040B107D9F720E0A8E7B0E001C01D92AE3AAD
S1130050B207E1F797D1DDC3D3CF1F920F920FB64A
S11300600F9211248F938091AB0081608093AB0039
S1130070A8958091AA008F5F843018F48093AA0019
S11300800CC01092AA008091AC008F5F8F3F19F0D2
S11300908093AC0002C01092AC008F910F900FBE01
S11300A00F901F9018958091AB0082608093AB00F5
S11300B008958091AB0084608093AB000895909381
S11300C07D0080937C00F5DF0895AF92BF92CF92BC
S11300D0DF92EF92FF921F93CF93DF93C82E882372
S11300E009F4C2C0D12C12E0CCE7D0E0BFD2909189
S11300F07B0091116CC080937A00823009F44AC06D
S113010028F4882359F08130E9F15EC0833009F482
S11301104FC08151853008F453C056C0E0917E0031
S1130120F0E0EE0FFF1FE159FF4F818189D2E0918A
S11301307E00F0E0EE0FFF1FE159FF4F808180D277
S1130140E0917E00F0E0EE0FFF1FE959FF4F81813F
S113015077D2E0917E00F0E0EE0FFF1FE959FF4FE8
S113016080816ED2E0917E00F0E0ED59FF4F8081F6
S113017067D28091620064D28091610061D2109252
S11301807B006FC080917D005BD2888159D2109230
S11301907B0067C080E054D280916000882319F00E
S11301A081E04ED202C080E04BD210927B0059C055
S11301B080E046D280917E0043D210927B0051C0F1
S11301C081E080937B004DC010927B004AC0913047
S11301D049F4282F30E0309379002093780010936D
S11301E07B003FC09230E9F590917A00933159F148
S11301F028F4913141F09231B1F031C0943151F190
S1130200953159F12CC0E0917E00F0E0EE0FFF1F14
S1130210E159FF4FB0907800A12C9501282BC9011A
S1130220918380831CC0E0917E00F0E0EE0FFF1FFD
S1130230E959FF4FF0907800E12C9701282BC90170
S1130240918380830CC0E0917E00F0E0ED59FF4F74
S1130250808305C08093620002C080936100109285
S11302607B00D394DC1042CFDF91CF911F91FF909C
S1130270EF90DF90CF90BF90AF900895C298BA9A54
S1130280089588B38C6F88BB87B38C7F87BB86B394
S11302908170B1998260833019F491E09093610088
S11302A008951092AC008091AD008C7F8093AD00D6
S11302B008959091AD0090FF0BC091FD11C0209165
S11302C0AC00281778F092609093AD0081E0089517
S11302D01092AC009D7F91609093AD0080E00895F2
S11302E081E0089580E008951F93CF93DF93EC019C
S11302F0162F83E001D180936000882351F0E12F11
S1130300F0E0EE0FFF1FE159FF4FC081D181C9DF3B
S11303100DC080916100CDDF882341F0E12FF0E032
S1130320EE0FFF1FE959FF4FC081D181CE01DF914C
S1130330CF911F91089520917C0030917D00821708
S1130340930768F460916200281B390B862F90E0B4
S11303508217930708F061E080E01BD10895281705
S1130360390778F4E62FF0E0ED59FF4F6081821BE6
S1130370930B262F30E02817390708F061E081E05D
S113038008D108957BDF82E49FE0E2D084E246D185
S113039087E0E9D094D083E0A0D085B7877E85BF7D
S11303A029E288E190E00FB6F894A89581BD0FBECC
S11303B021BD82E089D065DF80937E00E82FF0E0E4
S11303C0EE0FFF1FE159FF4FC081D181789414E0F3
S11303D08091AB0081FF04C08D7F8093AB0061D11D
S11303E08091AB0082FF0BC08B7F8093AB00609148
S11303F07E00CE0179DFEC0160917E009CDF80916C
S1130400AB0080FF05C08E7F8093AB0082E05CD0A0
S11304108091AB0081110DC0F89485B7806285BFCF
S11304207894889585B78F7D85BF8091AB008823AC
S113043099F386B3812788BBCBCF1F920F920FB657
S11304400F9211242F933F934F935F936F937F9356
S11304508F939F93AF93BF93EF93FF9324B135B1E1
S11304608091800090918100820F931F909381006E
S11304708093800020917F002F5F203118F4209317
S11304807F000CC010927F00929582958F7089270F
S11304909F70892714DE86B18F7186B9FF91EF9121
S11304A0BF91AF919F918F917F916F915F914F9188
S11304B03F912F910F900FBE0F901F90189517B872
S11304C08FE086B913B8089597B1907C892B87B9CA
S11304D086B1806E86B913B808959BB321E030E0ED
S11304E002C0220F331F8A95E2F7209592239BBB0B
S11304F087B3282327BB089589B382FB882780F913
S113050091E0892708951F920F920FB60F9211243C
S11305102F933F934F935F936F937F938F939F9307
S1130520AF93BF93EF93FF9319BE82E0CDDFFF91AA
S1130530EF91BF91AF919F918F917F916F915F9157
S11305404F913F912F910F900FBE0F901F901895D0
S11305509BBD8ABD1DBC1CBC1FBC8DE08EBD12BCE6
S113056082E08CB908954AB321E030E0B90102C0B9
S1130570660F771F8A95E2F7CB01842B8ABB83E24F
S113058080BF8BE083BF12BE80EF86BF8CBF19BED5
S113059008954CB756B7882371F0262F30E0240F06
S11305A0311D852F90E0281739071CF4640F6CBFA8
S11305B00DC05CBF0BC0842F90E0861B91091816F8
S11305C019061CF4461B4CBF01C01CBE81E089BF48
S11305D008951FB8D69A8EE78EB90895D6981FB895
S11305E08EE78EB9089588EA8DB980E78EB90895AB
S11305F0D69A80E78EB90895D69880E78EB9089583
S11306001092830010928400109282000895109238
S1130610960010929700109295000895CF93C82FDA
S1130620EFDFF5DFC093A8008AB380658ABBDC9A4C
S1130630DE9AD69888EA8DB980EF8EB9CF91089565
S1130640909182009031E1F3E0918400F0E0EB5767
S1130650FF4F8083809184008F5F8F70809384002C
S1130660809182008F5F809382000895809195002D
S11306708823E1F3E0919600F0E0E856FF4F808193
S1130680909196009F5F9F70909396009091950033
S1130690915090939500089580919500811115DDF6
S11306A008957599F9DF08951F920F920FB60F926E
S11306B011248F931092A900D698CC9B02C0CE9B94
S11306C0FCCFCE9903C088EF8DB902C088EA8DB9FA
S11306D080EF8EB98F910F900FBE0F901F901895D9
S11306E01F920F920FB60F9211242F933F934F93A3
S11306F05F936F937F938F939F93AF93BF93EF9386
S1130700FF938091A900823009F44DC028F4882316
S113071059F0813051F16BC0843009F449C000F1C3
S1130720853009F44AC063C08FB1882331F09FB18A
S113073096958091A800981311C0789B09C0809168
S11307408200811101C0A8DF81E08093A90004C068
S11307505EDF84E08093A9003CDF49C044DF47C0EA
S11307608FB1882311F03FDF43C08091820088233A
S1130770B9F0E0918300F0E0EB57FF4F80818FB92F
S1130780809183008F5F8F708093830080918200BB
S113079081508093820082E08093A90029DF27C0E2
S11307A01DDF21DF25C083E08093A90017DF1FC070
S11307B085E08093A90020DF1AC0809195008031E4
S11307C090F4E09197008FB1F0E0E856FF4F8083FA
S11307D0809197008F5F8F70809397008091950030
S11307E08F5F8093950084E08093A900F2DE5BDC48
S11307F0FF91EF91BF91AF919F918F917F916F91F5
S11308005F914F913F912F910F900FBE0F901F90CA
S10908101895F894FFCFD7
S1130816010F324B4B4B4B6412641264126412C8C0
S10B082612C812C812C8120026
S9030000FC
