S0140000436F64655F5553495F5457492E73726563F2
S113000010C02AC029C028C027C026C026C024C0CA
S113001023C022C021C0A2C21FC032C21DC06FC3F0
S11300208AC311241FBECFE5D1E0DEBFCDBF10E0EF
S1130030A0E6B0E0ECE6F8E002C005900D92A83727
S1130040B107D9F720E0A8E7B0E001C01D92AE3AAD
S1130050B207E1F7B1D108C4D3CF1F920F920FB604
S11300600F9211248F93A8958091AD0082FF08C050
S11300708B7F8093AD008091AB0081608093AB0057
S11300808091AA008F5F8093AA008A3088F08091C3
S1130090AB0082608093AB001092AA008091AC0008
S11300A08F5F8F3F19F08093AC0002C01092AC00B8
S11300B08F910F900FBE0F901F9018958091AB00F9
S11300C084608093AB00089590937D0080937C00BE
S11300D08091AB0088608093AB0008958F929F92CB
S11300E0BF92CF92DF92EF92FF921F93CF93DF9351
S11300F0C82EF894882309F4C5C0D12C6894BB2475
S1130100B1F8CCE7D0E0DDD2182F80917B008111CB
S11301106EC0A1D210937A00123009F44BC028F4B7
S1130120112361F01130F1F15FC0133009F450C0B4
S11301302FEE210F253008F453C056C0E0917E0005
S1130140F0E0EE0FFF1FE159FF4F8181A4D2E0914F
S11301507E00F0E0EE0FFF1FE159FF4F80819BD23C
S1130160E0917E00F0E0EE0FFF1FE959FF4F81811F
S113017092D2E0917E00F0E0EE0FFF1FE959FF4FAD
S1130180808189D2E0917E00F0E0ED59FF4F8081BB
S113019082D2809162007FD2809161007CD21092E1
S11301A07B006DC080917D0076D2888174D21092DC
S11301B07B0065C080E06FD280916000882319F0D5
S11301C081E069D202C080E066D210927B0057C001
S11301D080E061D280917E005ED210927B004FC09D
S11301E081E080937B004BC010927B0048C081303B
S11301F049F4212F30E03093790020937800B092B5
S11302007B003DC08230D9F580917A00833149F179
S113021028F4813141F08231A9F02FC0843141F1B9
S1130220853149F12AC0E0917E00F0E0EE0FFF1F16
S1130230E159FF4F90907800812CC401812B918368
S113024080831BC0E0917E00F0E0EE0FFF1FE959B0
S1130250FF4FF0907800E12CC701812B91838083BC
S11302600CC0E0917E00F0E0ED59FF4F108305C013
S11302701093620002C01093610010927B00D3942B
S1130280DC1041CF7894DF91CF911F91FF90EF90D4
S1130290DF90CF90BF909F908F900895C298BA9AA4
S11302A0089588B38C6F88BB87B38C7F87BB86B374
S11302B08170B1998260833019F491E09093610068
S11302C008951092AC008091AD008C7F8093AD00B6
S11302D008959091AD0090FF0BC091FD11C0209145
S11302E0AC00281778F092609093AD0081E00895F7
S11302F01092AC009D7F91609093AD0080E00895D2
S113030081E0089580E008951F93CF93DF93EC017B
S1130310162F83E01CD180936000882351F0E12FD5
S1130320F0E0EE0FFF1FE159FF4FC081D181C9DF1B
S11303300DC080916100CDDF882341F0E12FF0E012
S1130340EE0FFF1FE959FF4FC081D181CE01DF912C
S1130350CF911F91089520917C0030917D008217E8
S1130360930790F460916200281B390B862F90E06C
S11303708217930708F061E08091AD008460809358
S1130380AD0081E031D1089528173907A0F4E62F94
S1130390F0E0ED59FF4F6081821B930B262F30E074
S11303A02817390708F061E08091AD0084608093DC
S11303B0AD0080E019D1089571DF8DE093E0F3D0B2
S11303C084E257D187E0FAD0A5D083E0B1D085B7D5
S11303D0877E85BF29E288E190E00FB6F894A8955E
S11303E081BD0FBE21BD82E09AD05BDF80937E0089
S11303F0E82FF0E0EE0FFF1FE159FF4FC081D181DC
S1130400789414E08091AB0082FF04C08B7F8093CA
S1130410AB0072D18091AB0083FF0BC0877F8093C8
S1130420AB0060917E00CE016FDFEC0160917E0035
S113043092DF8091AB0081FF08C08C7F8093AB007A
S113044086B3812788BB82E06AD08091AB0080FFAD
S113045005C08E7F8093AB0082E061D08091AB00B9
S11304608111D0CFF89485B7806285BF7894889540
S113047085B78F7D85BF8091AB00882399F3C2CF68
S11304801F920F920FB60F9211242F933F934F9305
S11304905F936F937F938F939F93AF93BF93EF93E8
S11304A0FF9384B195B12091800030918100820F37
S11304B0931F909381008093800080917F008F5FD1
S11304C0803118F480937F0014C010927F0086B1AD
S11304D08F7186B980918000909181009295829568
S11304E08F7089279F708927EFDD10928100109209
S11304F08000FF91EF91BF91AF919F918F917F9178
S11305006F915F914F913F912F910F900FBE0F907C
S11305101F90189517B88FE086B913B8089597B14E
S1130520907C892B87B986B1806E86B913B80895FB
S11305309BB321E030E002C0220F331F8A95E2F71B
S1130540209592239BBB87B3282327BB089589B3A7
S113055082FB882780F991E0892708951F920F92E2
S11305600FB60F9211242F933F934F935F936F9382
S11305707F938F939F93AF93BF93EF93FF9319BE92
S113058082E0CDDFFF91EF91BF91AF919F918F9169
S11305907F916F915F914F913F912F910F900FBE7B
S11305A00F901F9018959BBD8ABD1DBC1CBC1FBC21
S11305B08DE08EBD12BC82E08CB908954AB321E06F
S11305C030E0B90102C0660F771F8A95E2F7CB01CC
S11305D0842B8ABB83E280BF8BE083BF12BE80EF93
S11305E086BF8CBF19BE08954CB756B7882371F0E7
S11305F0262F30E0240F311D852F90E0281739076E
S11306001CF4640F6CBF0DC05CBF0BC0842F90E062
S1130610861B9109181619061CF4461B4CBF01C011
S11306201CBE81E089BF08951FB8D69A8EE78EB9A3
S11306300895D6981FB88EE78EB9089588EA8DB9C3
S113064080E78EB90895D69A80E78EB90895D69832
S113065080E78EB90895109283001092840010925E
S113066082000895109296001092970010929500BF
S11306700895CF93C82FEFDFF5DFC093A8008AB3A6
S113068080658ABBDC9ADE9AD69888EA8DB980EFB9
S11306908EB9CF910895909182009031E1F3E09169
S11306A08400F0E0EB57FF4F8083809184008F5FDC
S11306B08F7080938400809182008F5F809382008A
S11306C00895809195008823E1F3E0919600F0E08D
S11306D0E856FF4F8081909196009F5F9F709093A2
S11306E09600909195009150909395000895809173
S11306F095008111F3DC08957599F9DF08951F922F
S11307000F920FB60F9211248F931092A900D698CE
S1130710CC9B02C0CE9BFCCFCE9903C088EF8DB991
S113072002C088EA8DB980EF8EB98F910F900FBE09
S11307300F901F9018951F920F920FB60F921124CD
S11307402F933F934F935F936F937F938F939F93D5
S1130750AF93BF93EF93FF938091A900823009F484
S11307604DC028F4882359F0813051F16BC0843096
S113077009F449C000F1853009F44AC063C08FB15F
S1130780882331F09FB196958091A800981311C0E9
S1130790789B09C080918200811101C0A8DF81E0AB
S11307A08093A90004C05EDF84E08093A9003CDF4D
S11307B049C044DF47C08FB1882311F03FDF43C0F5
S11307C0809182008823B9F0E0918300F0E0EB5738
S11307D0FF4F80818FB9809183008F5F8F708093EA
S11307E083008091820081508093820082E0809314
S11307F0A90029DF27C01DDF21DF25C083E0809306
S1130800A90017DF1FC085E08093A90020DF1AC06C
S113081080919500803190F4E09197008FB1F0E0E1
S1130820E856FF4F8083809197008F5F8F7080938D
S11308309700809195008F5F8093950084E080936A
S1130840A900F2DE3BDCFF91EF91BF91AF919F9144
S11308508F917F916F915F914F913F912F910F9065
S10F08600FBE0F901F901895F894FFCF66
S113086C010F324B4B4B4B6412641264126412C86A
S10B087C12C812C812C81200D0
S9030000FC
