S0140000436F64655F5553495F5457492E73726563F2
S113000026C040C03FC03EC03DC03CC03CC03AC01A
S113001039C038C037C036C035C06AC233C079C3AE
S113002094C3B1C0C7C0CFC0DCC0E3C0EDC0ECC056
S1130030EBC0EAC0E9C0E8C0E7C0E6C0E5C0E4C080
S1130040E3C0E2C0DEC0DDC0DCC0DBC0DAC0112426
S11300501FBECFE5D1E0DEBFCDBF10E0A0E6B0E02B
S1130060E0E8F8E002C005900D92A038B107D9F796
S113007020E0A0E8B0E001C01D92AF3BB207E1F779
S1130080D4D1FCC3BDCF1F920F920FB60F9211248F
S11300908F93A8958091920082FF08C08B7F8093F4
S11300A092008091930081608093930080919100ED
S11300B08F5F80939100863088F0809193008260F6
S11300C08093930010929100809190008F5F8F3FF6
S11300D019F08093900002C0109290008F910F90BD
S11300E00FBE0F901F9018958091930084608093A9
S11300F093000895909387008093860080919300E5
S113010088608093930008953F924F925F926F921C
S11301107F928F929F92AF92BF92CF92DF92EF9293
S1130120FF920F931F93CF93DF93682EF894882345
S113013009F4ADC0712C6894552451F844244394B7
S11301400F2EF6E8CF2EF0E0DF2EF02D0F2EFEE876
S1130150EF2EF0E0FF2EF02D0CE810E0CAE8D0E01E
S1130160BAD2382E90918300911151C07ED2309230
S11301708200832D90E08631910508F045C0FC0192
S1130180EF5EFF4F099480918F008FD2F701808139
S11301908CD280918D0089D2F801808186D28881A9
S11301A084D28091620081D2809161007ED21092CB
S11301B083006AC08091870078D2F601808175D26D
S11301C01092830061C080E070D280916000882327
S11301D019F0842D6AD202C080E067D210928300A5
S11301E053C080E062D2809188005FD21092830075
S11301F04BC080E05AD28091890057D2109283007C
S113020043C04092830040C0109283003DC09130AF
S113021041F490E090938100809380005092830099
S113022033C0923089F5809182008331F9F028F44B
S1130230813141F0823181F025C08431F1F0853182
S1130240F9F020C090908000812CC4018329909300
S11302508F0080938E0016C0B0908000A12CC50141
S1130260832990938D0080938C000CC0832D90E0A3
S113027090938B0080938A0005C03092620002C084
S113028030926100109283007394761069CF789451
S1130290DF91CF911F910F91FF90EF90DF90CF905E
S11302A0BF90AF909F908F907F906F905F904F9092
S11302B03F90089588B3886F88BB87B3887F87BBD6
S11302C0B29B04C081E08093890002C0109289002F
S11302D046B34170B1994260437040938800842FC3
S11302E090E0FC01EE0FFF1FE958FF4F20813181A0
S11302F030938F0020938E002091890021110CC02F
S1130300FC01EE0FFF1FE159FF4F20813181309333
S11303108D0020938C000BC0FC01EE0FFF1FE959E8
S1130320FF4F2081318130938D0020938C00FC019C
S1130330ED59FF4F808190E090938B0080938A0069
S1130340411103C081E080936100089510929000F0
S1130350809192008C7F80939200089590919200F6
S113036090FF0BC091FD11C020919000281778F0E8
S113037092609093920081E00895109290009D7F86
S113038091609093920080E0089581E0089580E068
S11303900895CF93DF93EC0183E011D18093600043
S11303A0811106C0C0918E00D0918F00CFDF09C0AB
S11303B080916100D3DF882321F0C0918C00D0911B
S11303C08D00CE01DF91CF91089520918600309168
S11303D087008217930790F460916200281B390B01
S11303E0862F90E08217930708F061E080919200D5
S11303F084608093920081E00FD108952817390713
S113040098F460918A0070918B00821B930B9B017E
S113041033272817390708F061E08091920084603F
S11304208093920080E0F8D0089586E195E0D2D0E0
S113043084E229D187E0D9D0A5D083E0B1D03ADFD6
S113044080918E0090918F0090938500809384001A
S113045085B7877E85BF29E288E190E00FB6F894DE
S1130460A89581BD0FBE21BD82E091D07894809182
S1130470930082FF04C08B7F8093930047D18091C7
S1130480930083FF11C0877F80939300609188005D
S113049080918400909185007CDF90938500809307
S11304A084006091880091DF8091930081FF05C0F2
S11304B08C7F8093930082E06AD08091930080FFC8
S11304C005C08E7F8093930082E061D08091930079
S11304D08111CDCFF89485B7806285BF78948895D3
S11304E085B78F7D85BF80919300882399F3BFCF13
S11304F01F920F920FB60F9211242F933F934F9395
S11305005F936F937F938F939F93AF93BF93EF9377
S1130510FF9384B195B12091950030919600820F9C
S1130520931F9093960080939500809194008F5F21
S1130530803118F48093940014C01092940086B112
S11305408F7186B9809195009091960092958295CD
S11305508F7089279F708927CDDD109296001092A5
S11305609500FF91EF91BF91AF919F918F917F91F2
S11305706F915F914F913F912F910F900FBE0F900C
S11305801F90189517B88FE086B913B8089597B1DE
S1130590907C892B87B986B1806E86B913B808958B
S11305A09BB321E030E002C0220F331F8A95E2F7AB
S11305B0209592239BBB87B3282327BB089529B397
S11305C030E0A90102C0559547958A95E2F7CA0122
S11305D0817008959BBD8ABD1DBC1CBC1FBC8DE0F1
S11305E08EBD12BC82E08CB908954AB321E030E09C
S11305F0B90102C0660F771F8A95E2F7CB01842BFD
S11306008ABB83E280BF8BE083BF12BE80EF86BFCC
S11306108FEE8CBF19BE08959CB726B7882331F09E
S1130620690F621748F06FEF620F06C0691718F47C
S1130630961B692F01C060E06CBF08951FB8D69A5D
S11306408EE78EB90895D6981FB88EE78EB90895AF
S113065088EA8DB980E78EB90895D69A80E78EB975
S11306600895D69880E78EB9089510929800109254
S113067099001092970008951092AB001092AC006C
S11306801092AA000895CF93C82FEFDFF5DFC0932F
S1130690BD008AB380658ABBDC9ADE9AD69888EA64
S11306A08DB980EF8EB9CF910895909197009031D4
S11306B0E1F3E0919900F0E0E656FF4F80838091EA
S11306C099008F5F8F7080939900809197008F5F5E
S11306D08093970008958091AA008823E1F3E09124
S11306E0AB00F0E0E355FF4F80819091AB009F5F3A
S11306F09F709093AB009091AA0091509093AA00A0
S113070008958091AA008111FFDC08957599F9DF9D
S113071008951F920F920FB60F9211248F93109287
S1130720BE00D698CC9B02C0CE9BFCCFCE9903C012
S113073088EF8DB902C088EA8DB980EF8EB98F91A8
S11307400F900FBE0F901F9018951F920F920FB627
S11307500F9211242F933F934F935F936F937F9343
S11307608F939F93AF93BF93EF93FF938091BE00BA
S1130770823009F44DC028F4882359F0813051F1B6
S11307806BC0843009F449C000F1853009F44AC0D3
S113079063C08FB1882331F09FB196958091BD00DD
S11307A0981311C0789B09C080919700811101C0F2
S11307B0A8DF81E08093BE0004C05EDF84E0809304
S11307C0BE003CDF49C044DF47C08FB1882311F02D
S11307D03FDF43C0809197008823B9F0E0919800EF
S11307E0F0E0E656FF4F80818FB9809198008F5FCB
S11307F08F70809398008091970081508093970028
S113080082E08093BE0029DF27C01DDF21DF25C0E1
S113081083E08093BE0017DF1FC085E08093BE0095
S113082020DF1AC08091AA00803190F4E091AC00DE
S11308308FB1F0E0E355FF4F80838091AC008F5F70
S11308408F708093AC008091AA008F5F8093AA0080
S113085084E08093BE00F2DE47DCFF91EF91BF910C
S1130860AF919F918F917F916F915F914F913F9144
S11308702F910F900FBE0F901F901895F894FFCFF3
S1130880017801040203048D006E0078008D008D50
S1130890006E0078008D00E00150019801E0010035
S9030000FC
