S0140000436F64655F5553495F5457492E73726563F2
S113000010C02AC029C028C027C026C026C024C0CA
S113001023C022C021C020C01FC01EC01DC0DCC11F
S1130020F7C111241FBECFE5D1E0DEBFCDBF10E084
S1130030A0E6B0E0E6E4F5E002C005900D92AA3730
S1130040B107D9F720E0AAE7B0E001C01D92AB3AAE
S1130050B207E1F715D175C2D3CF1F920F920FB635
S11300600F9211248F938091A80081608093A8003F
S1130070A8958091A7008F5F843018F48093A7001F
S113008007C01092A7008091A9008F5F8093A900F8
S11300908F910F900FBE0F901F9018958091A8001C
S11300A082608093A8000895AF92BF92CF92DF92AE
S11300B0EF92FF921F93CF93DF93C82E882309F406
S11300C0C2C0D12C12E0C0E6D0E068D190917D008E
S11300D091116CC080937C00823009F44AC028F4EA
S11300E0882359F08130E9F15EC0833009F44FC0B0
S11300F08151853008F453C056C0E0917E00F0E091
S1130100EE0FFF1FEF58FF4F818132D1E0917E0047
S1130110F0E0EE0FFF1FEF58FF4F808129D1E091EF
S11301207E00F0E0EE0FFF1FE759FF4F818120D1E1
S1130130E0917E00F0E0EE0FFF1FE759FF4F808152
S113014017D1E0917E00F0E0EB59FF4F808110D190
S1130150809164000DD1809163000AD110927D00DA
S11301606FC08091610004D1888102D110927D001A
S113017067C080E0FDD080916200882319F081E09F
S1130180F7D002C080E0F4D010927D0059C080E026
S1130190EFD080917E00ECD010927D0051C081E0C0
S11301A080937D004DC010927D004AC0913049F487
S11301B0282F30E030937B0020937A0010937D0049
S11301C03FC09230E9F590917C00933159F128F4C5
S11301D0913141F09231B1F031C0943151F1953106
S11301E059F12CC0E0917E00F0E0EE0FFF1FEF58B4
S11301F0FF4FB0907A00A12C9501282BC90191835F
S113020080831CC0E0917E00F0E0EE0FFF1FE759F1
S1130210FF4FF0907A00E12C9701282BC9019183BC
S113022080830CC0E0917E00F0E0EB59FF4F8083A7
S113023005C08093640002C08093630010927D0027
S1130240D394DC1042CFDF91CF911F91FF90EF90B8
S1130250DF90CF90BF90AF900895C298BA9A089556
S113026088B38C6F88BB87B38C7F87BB86B3817060
S1130270B1998260833019F491E0909363000895FA
S1130280ECDF81EA97E032D084E260D085B7877EE4
S113029085BF29E288E190E00FB6F894A89581BD66
S11302A00FBE21BDDDDF80937E008091A80081FF19
S11302B004C08D7F8093A8008CD08091A80080FF1B
S11302C003C08E7F8093A8008091A8008111EDCF98
S11302D0F89485B7806285BF7894889585B78F7DBB
S11302E085BF8091A800882399F3DFCF9BBD8ABD89
S11302F01DBC1CBC1FBC8DE08EBD12BC82E08CB941
S113030008951FB8D69A8EE78EB90895D6981FB867
S11303108EE78EB9089588EA8DB980E78EB908957D
S1130320D69A80E78EB90895D69880E78EB9089555
S1130330109280001092810010927F000895109214
S1130340930010929400109292000895CF93C82FB6
S1130350EFDFF5DFC093A5008AB380658ABBDC9A22
S1130360DE9AD69888EA8DB980EF8EB9CF91089538
S113037090917F009031E1F3E0918100F0E0EE573D
S1130380FF4F8083809181008F5F8F708093810005
S113039080917F008F5F80937F0008958091920009
S11303A08823E1F3E0919300F0E0EB56FF4F808166
S11303B0909193009F5F9F7090939300909192000F
S11303C091509093920008958091920081116CDE77
S11303D008957599F9DF08951F920F920FB60F9241
S11303E011248F931092A600D698CC9B02C0CE9B6A
S11303F0FCCFCE9903C088EF8DB902C088EA8DB9CD
S113040080EF8EB98F910F900FBE0F901F901895AB
S11304101F920F920FB60F9211242F933F934F9375
S11304205F936F937F938F939F93AF93BF93EF9358
S1130430FF938091A600823009F44DC028F48823EC
S113044059F0813051F16BC0843009F449C000F196
S1130450853009F44AC063C08FB1882331F09FB15D
S113046096958091A500981311C0789B09C080913E
S11304707F00811101C0A8DF81E08093A60004C041
S11304805EDF84E08093A6003CDF49C044DF47C0C0
S11304908FB1882311F03FDF43C080917F00882310
S11304A0B9F0E0918000F0E0EE57FF4F80818FB902
S11304B0809180008F5F8F708093800080917F0097
S11304C0815080937F0082E08093A60029DF27C0BB
S11304D01DDF21DF25C083E08093A60017DF1FC046
S11304E085E08093A60020DF1AC0809192008031BD
S11304F090F4E09194008FB1F0E0EB56FF4F8083CD
S1130500809194008F5F8F7080939400809192000B
S11305108F5F8093920084E08093A600F2DEBEDDBC
S1130520FF91EF91BF91AF919F918F917F916F91C7
S11305305F914F913F912F910F900FBE0F901F909D
S10905401895F894FFCFAA
S11305463412010F324B4B4B4B6412641264126427
S10D055612C812C812C812C812001D
S9030000FC
